S01E00006F75747075742F736F66742D616767726573736976652E737265630D
S214008000130000001300000013000000130000001F
S214008010130000001300000013000000130000000F
S21400802013000000130000001300000013000000FF
S21400803013000000130000001300000013000000EF
S21400804013000000130000001300000013000000DF
S2140080501300000013000000130000006F0040092A
S2140080606F00200A6F00000B6F00E00B6F00C00C63
S2140080706F00C00E6F00600D6F0080106F00200F45
S2100080806F00C0006F00E0106F00C01121
S21400808C81400681868106828682068386830684E4
S21400809C868406858685068686860687868706886F
S2140080AC868806898689068A868A068B868B068C3F
S2140080BC868C068D868D068E868E068F868F17018D
S2140080CC1000130161F36357BD0123200D00110D41
S2140080DCE3DDADFF01458145EF00B0602A842285C3
S2140080ECEF00A0211D7186CEC9209700000093805A
S2140080FC80106F0060161D7186CE45289700000014
S21400810C9380600F6F0060151D7186CE79289700DE
S21400811C00009380400E6F0060141D7186CE712097
S21400812C970000009380200D6F0060131D7186CEA3
S21400813CAD28970000009380000C6F0060121D7134
S21400814C86CEA520970000009380E00A6F00801171
S21400815C1D7186CE9928970000009380C0096F0089
S21400816C40101D7186CE9120970000009380A008C9
S21400817C6F00800F1D7186CE0D289700000093802F
S21400818C80076F00400E1D7186CE052097000000FC
S21400819C938060066F00000C1D7186CE3920970008
S2140081AC0000938040056F00000B0EC012C216C470
S2140081BC1AC61EC82ACA2ECC32CE36D03AD23ED4D6
S2140081CC42D646D872DA76DC7ADEFEC0732E007B98
S2140081DCF32E107B732F207BF2C2F6C4FAC6732ED6
S2140081EC407BF32E507B732F607BF2C8F6CAFACC1A
S2140081FC8280464ED64E664F73104E7B73905E7BD7
S21400820C73106F7B164EA64E364F73100E7B739004
S21400821C1E7B73102F7B82411242A2423243C24312
S21400822C5245E245724682561257A2573258C258E9
S21400823C525EE25E725F864FF64025617300203018
S21400824C828000000000000000000000000000001B
S20600825C00001B
S20600825E01A078
S20600826001A076
S20600826201A074
S20600826401A072
S20600826601A070
S20600826801A06E
S20600826A01A06C
S20600826C01A06A
S20600826E01A068
S20600827001A066
S20600827201A064
S20600827401A062
S214008276411106C622C463F7D5000145B240224422
S214008286410182803684B2853686A9282285B24088
S20A00829622444101828033
S20600829C25A80E
S21400829E931585010605FD85ED892D8D1375F50F54
S2060082AE8280C7
S2140082B005C281462E960347050083C7050085053F
S2140082C03D8FD98E0505E398C5FE13F5F60F82801F
S2080082D0014582805D
S2140082D411CA2A96AA86138716002380B600BA8681
S20A0082E4E31BC7FE8280CA
S2140082EA09CE2A96AA8603C705008505938716002F
S2100082FA2380E600BE86E398C7FE828064
S20600830601A0CF
S20600830801A0CD
S21400830A41112AC632456358A00001450100B2450C
S20E00831A0505E34DB5FE4101828023
S214008324397106DE22DC26DA4AD84ED652D456D224
S2140083345AD05ECE62CC66CA6AC86EC603460500CC
S2140083442380C50003491500A38025018347250023
S2140083542381F50083493500A3813501834F450009
S2140083642382F501034A5500A3824501034B6500A9
S21400837423836501034E7500A383C501034385006B
S2140083842384650083439500A3847500834EA5006B
S2140083942385D501034FB500A385E5010344C50035
S2140083A4238685000348D500A38605018348E50097
S2140083B4238715018342F500B70A1000938A0A0042
S2140083C433850A0133871A01A3875500B3865A00FA
S2140083D40345050083C6060003470700B3848A00E6
S2140083E483C40400318D3349E900B3CBD70033CCC2
S2140083F499009347150033452A01B3447B0133465D
S2140084048E012388F500A388250123897501A38995
S2140084148501B3CCFF00B3C3A300B3CE9E00B34F15
S214008424CF00238A9501A38AA500238B9500A38BEE
S214008434C5003345930133467800B3C4D801B3C6A8
S214008444F201238CA500A38C7500238DD501A38D82
S214008454F501B349A4001375F60F13F4F60F13F7DA
S214008464F40F238E3501A38EC500238F9500A38FAA
S214008474D500569513F6F90F5694569703450500FE
S21400848456968346070003460600034704003D8DC0
S21400849493472500334FD90033C9EB00334DCC0046
S2140084A4334CDA00B34BEB00334BCE002380F5029B
S2140084B4A380E50323812503A381A50333CEFC0013
S2140084C43343F300B3C6830133C47E01B3C46F01E0
S2140084D4B34D880133C77801B3C062012382C50354
S2140084E4A382850323837503A3836503238465021C
S2140084F4A384D50223858502A3859502B3C66900A5
S21400850413F4FD0F93F4F00F1375F70F2386D502BB
S214008514A386B5032387E502A3871502569493F62C
S214008524F60FD694569503440400D69603450500E4
S21400853403C6060083C40400A18F93C64700B3474E
S214008544AF0033449900334DCD002388D502A38869
S214008554F50223898502A389A503B34CDE00334EB6
S214008564FC0033C68B003345AB0133CFF30033C96D
S2140085748E0033CAAF01238A9503A38AC503238BCF
S214008584C502A38BA50233459301B3CF990133C625
S214008594ED0133472701B3C44001238CA502A38C05
S2140085A4E503238D2503A38D4503238EF503A38EB0
S2140085B4C502238FE502A38F95021375F60F13F6F3
S2140085C4FF0F93F4F40F1377F70F5695D694569738
S2140085D40345050083C40400034707005696034674
S2140085E40600A98EB3CDE700B3409400B349CD008E
S2140085F4B343EC0033CE9B00B34ECB003348E800C5
S214008604B3C89800B3C2C20013C68600B3467F0040
S2140086143347C901334BDA011375F80F13F4F20F1D
S21400862493F7F80F2380C504A380B50523811504AA
S214008634A3813505B3C4CC003343C3005695569482
S214008644D69723829504A38275042383C505A38342
S214008654D50523846504A384D5042385E504A3856E
S2140086646505B3C66F002386D504A3860505238750
S2140086741505A387550493F6F60F03450500D6960D
S21400868483C7070083C6060003440400318D134BDA
S214008694050133C5FD0033C68000B3C6D900238860
S2140086A46505A388A5042389C504A389D504B3CC8A
S2140086B46401B3C7A300B344CE0033C4DE00334F13
S2140086C4AF00B349C900334ADA00238A9505A38A62
S2140086D4F504238B9504A38B8504B347930133C910
S2140086E49F01B344E80133C4380133C74201238CE5
S2140086F4F504A38CE505238D3505A38D4505238E4A
S2140087042505A38E9504238F8504A38FE50493F78C
S214008714F40F9374F90F1377F70F1374F40FD697B7
S2140087245697569483C7070003470700034404007C
S214008734D69483C40400B3C76701B34F8500334B94
S214008744E600B3CB9600B3C38300334EEE00B3CE3D
S2140087549E0013C50702334D7F00B3CDC901B34055
S214008764DA01B344780033CCC80133C6D20123807F
S214008774A506A380F50723816507A3817507B3CCF7
S214008784AC003343A30093F6F40F1377F60F137479
S214008794FC0F23829507A38275062383C507A3834C
S2140087A4D50723846506A384A5072385B507A38573
S2140087B41506B3476900D696569756942386F5064B
S2140087C4A386950623878507A387C50693F7F70F21
S2140087D483C60600D6970344040083C707000347EE
S2140087E40700358D134D050433C48F00B346EB00E4
S2140087F433C7FB002388A507A38885062389D506E7
S214008804A389E50633CBAC01B3CB83003345DE0046
S214008814B3C7EE00334F8F00B3CFD900334AEA0014
S214008824238A6507A38A7507238BA506A38BF506FB
S2140088343345630133496901B3C7E401B344FC011A
S21400884433464601238CA506A38CE507238DF5073E
S214008854A38D4507238E2507A38EF506238F95063D
S214008864A38FC50613F5F70F9379F90F1376F60F52
S21400887493F4F40F56955696D6948347050003460C
S214008884060003C50400D69983C40900B3C7A7012C
S214008894B34BA40033CCC600B3499700B3C3A300BC
S2140088A4334ECE00B3CE9E003348A800B3C8C800EB
S2140088B4B3C2920013C507F8B34C7F0033C7CF0189
S2140088C4B347DA011374F80F93F4F20F93F6F80F24
S2140088D42380A508A380750923818509A38135090A
S2140088E43346AB003343A3005694D694D6962382DD
S2140088F4C508A38275082383C509A383D5092384E1
S2140089046508A38495092385E508A385F5083347F8
S21400891469002386E508A386050923871509A38726
S21400892455081377F70F83470400569783C6060047
S2140089340344070003C704003D8D134BB50133C53C
S214008944DB003347EC00B3C7890023886509A38896
S214008954A5082389E508A389F508B349660133C445
S214008964A3003346EE00B3C6FE00B34BAF0033CCD1
S214008974EF00B34FFA00238A3509A38A8508238BB0
S214008984C508A38BD50833463301334F3901B346A4
S214008994780133C48801B3C4F201238CC508A38CC0
S2140089A47509238D8509A38DF509238EE509A38E04
S2140089B4D508238F8508A38F950813F6F60F9376AC
S2140089C4FF0F93F4F40F1374F40F5696D69456943C
S2140089D40346060083C4040003440400D69683C6F4
S2140089E406003346660133498500334A9700B3CA06
S2140089F4D70033C48300B3449E00B3C6DE001346D8
S214008A046603B3C38B00334E9C00B3CEDF003348FB
S214008A14880033C79800B3C7D2002380C50AA38052
S214008A24250B2381450BA381550B33C5C90033465B
S214008A34C3002382A50AA382850A2383950AA383F7
S214008A44D50A2384C50AA384750A2385C50BA38582
S214008A54D50B3345CF002386A50AA386050B2387AB
S214008A64E50AA387F50AF2506254D2544259B25921
S214008A74225A925A025BF24B624CD24C424DB24D91
S208008A842161828065
S214008A88411122C626C44AC20348050003471500FA
S214008A9883472500834635008348450083425500B2
S214008AA803436500834375002207C207E20633685E
S214008AB8070133EEF6008347850003479500834E8B
S214008AC8A500034FB500A2024203E2032207B3E85B
S214008AD81201B3E263003363F7008347C500034718
S214008AE8D5008346E5000345F500C20E620F22074F
S214008AF8C2066205B363DF01B36EF700336FD500B5
S214008B0833680E0103AE050083AF450003A9850050
S214008B18D445B3E71201984933E563003364DF01AF
S214008B28B344C801B3C7F70133452501A18E3307FF
S214008B3897263307F7663307A7A63308D7E6C0494C
S214008B483304F4263304A4663304D4A6B30894E6A0
S214008B58984D3307A7263307D766330797A63307F4
S214008B68F7E6C04DB306D426B3869666B386F6A651
S214008B783385A6E69451B3860627B3861667B3866A
S214008B88E6A6B382A6E6DC51B3871727B387E7665F
S214008B98B387A7A6B38707E78455B384E426B384C8
S214008BA8A466B38404A7B38414E7C0553305A42683
S214008BB833050567330515A73307E5E688593305F2
S214008BC855263305F566330595A63308E5E6C059F8
S214008BD83304F426330494663304E4A6330454E6D4
S214008BE8885D330595263305E566330555A63305B2
S214008BF8F5E6D45DB386E626B3865666B386F6A64D
S214008C08338796E6B441B3860627B3868666B38668
S214008C18A6A6B388E6E6FC41B3878726B387A76689
S214008C28B387E7A6B38707E7A445B384A426B38427
S214008C38E466B38404A7B38484E6F445B386E626DC
S214008C48B3860667B38686A6B386A6E6A84933051E
S214008C5815273305F566330595A63308D5E6F8498E
S214008C683307F726330797663307D7A6330717E77A
S214008C78A04D330494263304D466330414A733046F
S214008C88F4E6E84D3305D526330515673305F5A60E
S214008C98330595E6B451B3860627B386E666B386EB
S214008CA886A6B388A6E6FC51B387E726B387876609
S214008CB8B387A7A6B38707E7A455B3848426B384E7
S214008CC8A466B38404A7B384E4E6F4553385A626DD
S214008CD8330505673305E5A6B30685E6A8593305C3
S214008CE815273305F566330595A63308D5E6F859EE
S214008CF83307F726330797663307D7A6330717E7EA
S214008D08A05D330494263304D466330414A73304CE
S214008D18F4E6E85D3305D526330515673305F5A66D
S214008D28330595E683A60508B3860627B386E66662
S214008D38B38686A6B388A6E683A64508B386E6263F
S214008D48B3868666B386A6A6B38406E783A6850892
S214008D58B3868626B386A666B38606A7B386E6E6F1
S214008D6883A7C5083385A726330505673305E5A613
S214008D78B30785E603A50509330515273305956664
S214008D883305D5A63308F5E603A74509330797261E
S214008D983307D7663307F7A6330417E703A785090B
S214008DA83307D7263307F766330717A7330797E639
S214008DB803A5C5093305F52633051567330595A6B6
S214008DC83305D5E683A6050AB3860623B3868662E8
S214008DD8B386E6A2B386A6E283A7450AB3878722A8
S214008DE8B387E762B387A7A2B38707E383A4850A96
S214008DF893D88601B384E422B384A462B38404A31C
S214008E08B38484E283A5C50A93D2060113D38600E9
S214008E1893D387013385A52213DE0701330505633F
S214008E2893D58700330585A213D484013305E5E27C
S214008E3813D704012300D600A300660023015600BA
S214008E48A301160193D684002302F600A302B600F7
S214008E582303C601A303760023049600A304D600C2
S214008E682305E600A305860093558501935605015C
S214008E78135785002306A600A306E6002307D60098
S212008E88A307B6003244A2441249410182807C
S214008E96557186C7A2C5A6C3CAC14EDFAE84BD89B4
S214008EA695E13689AA896C003285EFF04FC799C8D6
S214008EB6014433858900330689006C00D93641049F
S214008EC6E36994FEBE402E449E440E49FA596961F3
S206008ED6828093
S208008ED80CC18280C2
S214008EDC904110C1D04150C1904510C5CC454CC5F1
S206008EEC82807D
S214008EEE557186C737051000130505106C08EFF090
S214008EFE8FC237051000130505116C087000B53EBD
S214008F0E37251000B715A5FB37F64B71B7B6252ECD
S214008F1E3717F9AA938245911306F6411388E6ABE6
S214008F2E9308F7802328550250D9232C0503232EA9
S214008F3E1503B2473CC1C24674C1524738C5E24516
S214008F4EB3C75700358E5D8EB346070133C715017E
S214008F5ED98E558E6CC511C6B7B5AABA9385D5AA45
S214008F6E29A0B7C5FECA9385E5AB4CC1B7C5ADDE25
S212008F7E9385F5EE0CC10145BE406961828008
S214100000637C777BF26B6FC53001672BFED7AB76C0
S214100010CA82C97DFA5947F0ADD4A2AF9CA472C06B
S214100020B7FD9326363FF7CC34A5E5F171D83115D8
S21410003004C723C31896059A071280E2EB27B275F9
S21410004009832C1A1B6E5AA0523BD6B329E32F8471
S21410005053D100ED20FCB15B6ACBBE394A4C58CF69
S214100060D0EFAAFB434D338545F9027F503C9FA83D
S21410007051A3408F929D38F5BCB6DA2110FFF3D20B
S214100080CD0C13EC5F974417C4A77E3D645D1973BF
S21410009060814FDC222A908846EEB814DE5E0BDBB9
S2141000A0E0323A0A4906245CC2D3AC629195E479F0
S2141000B0E7C8376D8DD54EA96C56F4EA657AAE084A
S2141000C0BA78252E1CA6B4C6E8DD741F4BBD8B8AE5
S2141000D0703EB5664803F60E613557B986C11D9E4B
S2141000E0E1F8981169D98E949B1E87E9CE5528DFC2
S2141000F08CA1890DBFE6426841992D0FB054BB16EE
S214100100636573653430343070617373776F7264FF
S21410011048656C6C6F2C20576F726C6421303030D1
S8040080D2A9
