S01A00006F75747075742F736F66742D756E726F6C6C2E73726563A5
S214008000130000001300000013000000130000001F
S214008010130000001300000013000000130000000F
S21400802013000000130000001300000013000000FF
S21400803013000000130000001300000013000000EF
S21400804013000000130000001300000013000000DF
S2140080501300000013000000130000006F0040092A
S2140080606F00200A6F00000B6F00E00B6F00C00C63
S2140080706F00C00E6F00600D6F0080106F00200F45
S2100080806F00C0006F00E0106F00C01121
S21400808C81400681868106828682068386830684E4
S21400809C868406858685068686860687868706886F
S2140080AC868806898689068A868A068B868B068C3F
S2140080BC868C068D868D068E868E068F868F17018D
S2140080CC1000130161F36357BD0123200D00110D41
S2140080DCE3DDADFF01458145EF00F07F2A84228564
S2140080ECEF0040211D7186CEC920970000009380BA
S2140080FC80106F0060161D7186CE45289700000014
S21400810C9380600F6F0060151D7186CE79289700DE
S21400811C00009380400E6F0060141D7186CE712097
S21400812C970000009380200D6F0060131D7186CEA3
S21400813CAD28970000009380000C6F0060121D7134
S21400814C86CEA520970000009380E00A6F00801171
S21400815C1D7186CE9928970000009380C0096F0089
S21400816C40101D7186CE9120970000009380A008C9
S21400817C6F00800F1D7186CE0D289700000093802F
S21400818C80076F00400E1D7186CE052097000000FC
S21400819C938060066F00000C1D7186CE3920970008
S2140081AC0000938040056F00000B0EC012C216C470
S2140081BC1AC61EC82ACA2ECC32CE36D03AD23ED4D6
S2140081CC42D646D872DA76DC7ADEFEC0732E007B98
S2140081DCF32E107B732F207BF2C2F6C4FAC6732ED6
S2140081EC407BF32E507B732F607BF2C8F6CAFACC1A
S2140081FC8280464ED64E664F73104E7B73905E7BD7
S21400820C73106F7B164EA64E364F73100E7B739004
S21400821C1E7B73102F7B82411242A2423243C24312
S21400822C5245E245724682561257A2573258C258E9
S21400823C525EE25E725F864FF64025617300203018
S21400824C828000000000000000000000000000001B
S20600825C00001B
S20600825E01A078
S20600826001A076
S20600826201A074
S20600826401A072
S20600826601A070
S20600826801A06E
S20600826A01A06C
S20600826C01A06A
S20600826E01A068
S20600827001A066
S20600827201A064
S20600827401A062
S214008276411106C622C463F4D500014429A03684FB
S214008286B2853686A9282285B240224441018280DC
S20600829625A814
S214008298931585010605FD85ED892D8D1375F50F5A
S2060082A88280CD
S2140082AA05C281462E960347050083C70500850545
S2140082BA3D8FD98E0505E398C5FE13F5F60F828025
S2080082CA0145828063
S2140082CE11CA2A96AA86138716002380B600BA8687
S20A0082DEE31BC7FE8280D0
S2140082E409CE2A96AA8603C7050085059387160035
S2100082F42380E600BE86E398C7FE82806A
S20600830001A0D5
S20600830201A0D3
S21400830441112AC632456358A00001450100B24512
S20E0083140505E34DB5FE4101828029
S21400831E411122C626C4034605002380C500034627
S21400832E1500A380C500034625002381C50003461D
S21400833E3500A381C500034645002382C5000346CB
S21400834E5500A382C500034665002383C500034679
S21400835E7500A383C500034685002384C500034627
S21400836E9500A384C5000346A5002385C5000346D5
S21400837EB500A385C5008346C5002386D5000347F2
S21400838ED5003708100013080800A386E5008347BB
S21400839EE50083C8050083C2150003C3250003CE7F
S2140083AE35002387F5000345F500C2964297C2971F
S2140083BEA387A50042950347070083C6060003451C
S2140083CE050083C7070083C3450083CE550003CF41
S2140083DE650083CF750033471701B3C7F2003345E8
S2140083EEA300B346DE0083C8850083C2950003C390
S2140083FEA50003CEB5001347170033C6FE00B34ED6
S21400840EAF0033CFDF002388E500A388F50023896D
S21400841EA500A389D50033C5E30083C3C50003C7F3
S21400842ED50083C7E50083C6F500B3C2C20033434A
S21400843ED301334EEE01238AA500A38AC500238BF3
S21400844ED501A38BE50133C5A8003344570033C7C7
S21400845E6700B3C4C60183C8050183CE150103CFDA
S21400846E250183CF3501238CA500A38C5500238DC3
S21400847E6500A38DC50133C5A3009377F40F13F6DD
S21400848EF40F9376F70F238EA500A38E8500238F09
S21400849EE500A38F9500C2971375F50F4296C29608
S2140084AE429503C70700034505000346060083C62C
S2140084BE060083C2450183C4550103C4650183C704
S2140084CE750133471701B3C6DE003346CF0033C5FA
S2140084DEAF0083C8850103C3950183C3A50103CEF0
S2140084EEB501134727002380E502A380D50223811A
S2140084FEC502A381A50233C7E200A58E218E3D8D4F
S21400850E83C2C50183CED50103CFE50183C7F5012E
S21400851E2382E502A382D5022383C502A383A50286
S21400852E33C7E800B346D30033C6C3003345AE00A8
S21400853E83C8050203C3150283C3250203CE350284
S21400854E2384E502A384D5022385C502A385A5024E
S21400855E33C7E200B3C6DE003346CF003D8D23861A
S21400856EE502A386D5022387C502A387A50293F646
S21400857EF60F1377F70F1375F50F1376F60FC296E1
S21400858E42974295429683C6060003470700034568
S21400859E05000346060083C2450283C4550203C483
S2140085AE650283C77502B3C616013346C30033C5CC
S2140085BEA3003347EE0083C8850203C3950283C328
S2140085CEA50203CEB50293C64600B18C298CB98F90
S2140085DE2388D502A388C5022389A502A389E502AE
S2140085EE33C5D20083C2C50283C6D50203C7E502D1
S2140085FE03C6F50233439300B3C38300334EFE0027
S21400860E238AA502A38A9502238B8502A38BF502E5
S21400861E33C5A800B3C66600334777003346C60197
S21400862E83C8050383CE150303CF250383CF3503F7
S21400863E238CA502A38C6502238D7502A38DC5031C
S21400864E33C5A20093F4F60F1374F60F9377F70F55
S21400865E238EA502A38ED502238FE502A38FC50215
S21400866EC2941375F50F4294C297429503C6040042
S21400867E034505008346040003C7070083C245036F
S21400868E83C4550303C4650383C7750333461601B7
S21400869E33C7EE00B346DF0033C5AF0083C885038D
S2140086AE03C3950383C3A50303CEB5031346860003
S2140086BE2380C504A380E5042381D504A381A504E5
S2140086CE33C6C200258FA18E3D8D83C2C50383CED1
S2140086DED50303CFE50383C7F5032382C504A38220
S2140086EEE5042383D504A383A50433C6C800334705
S2140086FEE300B3C6D3003345AE0083C8050403C3F8
S21400870E150483C3250403CE35042384C504A3842D
S21400871EE5042385D504A385A50433C6C20033C756
S21400872EEE00B346DF003D8D2386C504A386E50422
S21400873E2387D504A387A5041377F70F1376F60FB2
S21400874E1375F50F93F6F60F429742964295C2961C
S21400875E03470700034606000345050083C60600CA
S21400876E83C2450483C4550403C4650483C77504D5
S21400877E33471701B346D30033C5A3003346CE00A6
S21400878E83C8850403C3950483C3A50403CEB5042A
S21400879E13470701B58C298CB18F2388E504A3886F
S2140087AED5042389A504A389C50433C5E20083C274
S2140087BEC50483C6D50403C7E50403C6F5043343D0
S2140087CE9300B3C38300334EFE00238AA504A38A08
S2140087DE9504238B8504A38BF50433C5A800B3C676
S2140087EE6600334777003346C60183C8050583CE39
S2140087FE150503CF250583CF3505238CA504A38C3D
S21400880E6504238D7504A38DC50533C5A20093F4A8
S21400881EF60F1374F60F9377F70F238EA504A38E19
S21400882ED504238FE504A38FC504C2941375F50FE4
S21400883E4294C297429503C604000345050083463C
S21400884E040003C7070083C2450583C4550503C449
S21400885E650583C775053346160133C7EE00B34666
S21400886EDF0033C5AF0083C8850503C3950583C3F4
S21400887EA50503CEB505134606022380C506A380BE
S21400888EE5062381D506A381A50633C6C200258F2D
S21400889EA18E3D8D83C2C50583CED50503CFE505D6
S2140088AE83C7F5052382C506A382E5062383D50670
S2140088BEA383A50633C6C8003347E300B3C6D3006A
S2140088CE3345AE0083C8050603C3150683C32506C7
S2140088DE03CE35062384C506A384E5062385D50672
S2140088EEA385A50633C6C20033C7EE00B346DF0027
S2140088FE3D8D2386C506A386E5062387D506A38764
S21400890EA5061377F70F1376F60F1375F50F93F676
S21400891EF60F429742964295C296034707000346C5
S21400892E06000345050083C6060083C2450683C4BB
S21400893E550603C4650683C7750633471701B34647
S21400894ED30033C5A3003346CE0083C8850603C3C3
S21400895E950683C3A50603CEB50613470704B58C46
S21400896E298CB18F2388E506A388D5062389A5060C
S21400897EA389C50633C5E20083C2C50683C6D506DF
S21400898E03C7E50603C6F50633439300B3C3830059
S21400899E334EFE00238AA506A38A9506238B8506EC
S2140089AEA38BF50633C5A800B3C66600334777001B
S2140089BE3346C60183C8050783CE150703CF2507A2
S2140089CE83CF3507238CA506A38C6506238D7506E7
S2140089DEA38DC50733C5A20093F4F60F1374F60FD6
S2140089EE9377F70F238EA506A38ED506238FE5065F
S2140089FEA38FC506C2941375F50F4294C29742957F
S214008A0E03C60400034505008346040003C707009B
S214008A1E83C2450783C3550703C4650783C7750717
S214008A2E3346160133C7EE00B346DF0033C5AF003C
S214008A3E83C8850703C3950783CEA50703CEB50760
S214008A4E134606F82380C508A380E5082381D508BB
S214008A5EA381A50833C6C20033C7E300A18E3D8DA1
S214008A6E83C2C50783C3D50703CFE50783CFF507B4
S214008A7E33C4C800B344E300B3C7DE002382C50880
S214008A8EA382E5082383D508A383A5083345AE0045
S214008A9E23848508A38495082385F508A385A50851
S214008AAE33C68200B3C693003347FF0033C5AF000C
S214008ABE2386C508A386D5082387E508A387A508B9
S214008ACE93F6F60F1376F60F1375F50F1377F70F5B
S214008ADEC29642964295429783C606008348060083
S214008AEE034505000347070083C7050883C415081A
S214008AFE03C4250803C63508BD8E258F218D83C277
S214008B0E450883C4550803C4650883C775083346ED
S214008B1E160193C6B601B98C298CB18F2388D50859
S214008B2EA388E5082389A508A389C50883C88508F0
S214008B3E03C6950803C7A50803C5B508B3C6D20075
S214008B4E258E218F3D8D238AD508A38A9508238BE3
S214008B5E8508A38BF50883C2C50883C4D50803C44D
S214008B6EE50883C7F508B3C6D800B18C398CA98F33
S214008B7E238CD508A38CC508238DE508A38DA508E0
S214008B8E33C5D20013F6F40F93F6F70F1377F40FE0
S214008B9E238EA508A38E9508238F8508A38FF50828
S214008BAE42961375F50FC2964297429503460600F7
S214008BBE0348050083C606000347070083C705095A
S214008BCE83C4150903C4250903C53509B348F60041
S214008BDE258FA18E3345050103C8450983C4550963
S214008BEE03C4650903C6750993C768032380F50A8F
S214008BFEA380E50A2381D50AA381A50AB347F80008
S214008C0E258FA18E318D03C8850983C4950903C4AB
S214008C1EA50903C6B5092382F50AA382E50A2383AE
S214008C2ED50AA383A50AB347F800258FA18E318DEA
S214008C3E03C8C50983C4D50983C8E50903C6F50963
S214008C4E3344F800B98C2384F50AA384E50A2385F9
S214008C5ED50AA385A50AB3C6D800318D2386850A04
S214008C6EA386950A2387D50AA387A50A3244A2446B
S208008C7E41018280A9
S214008C82411122C626C40348C5000347D5008347C0
S214008C92E5008346F500834885008342950003433A
S214008CA2A5008343B5002207C207E2063368070120
S214008CB233EEF6008347450003475500834E6500B2
S214008CC2034F7500A2024203E2032207B3E8120131
S214008CD2B3E263003363F7008347050003471500DA
S214008CE28346250003453500C20E620F2207C206E0
S214008CF26205B363DF01B36EF700336FD5003368E6
S214008D020E0103AE050083AF45008445C845B3E7B0
S214008D121201944933E763003364DF013344C4012C
S214008D223347F701A58FB344A8003385862633055B
S214008D32E5663305F5A6330895E6D449B386E626F6
S214008D42B386F666B38696A6B38886E6944DB38651
S214008D52F626B3869666B38686A6B386E6E6C84D3C
S214008D6233059526330585663305E5A63305F5E610
S214008D72985133070727330717673307D7A6B30277
S214008D82A7E6DC51B3871727B387D766B387A7A6AC
S214008D92B38707E78455B384D426B384A466B38422
S214008DA204A7B38414E7C0553305A4263305056724
S214008DB2330515A7B306D5E6885933055526330578
S214008DC2F566330595A63308D5E6C0593304F4266E
S214008DD2330494663304D4A6330454E6885D33051C
S214008DE295263305D566330555A63305F5E6D85DD3
S214008DF2B306D726B3865666B386F6A6338796E6B6
S214008E02B441B3860627B3868666B386A6A6B3881B
S214008E12E6E6FC41B3878726B387A766B387E7A64D
S214008E22B38707E7A445B384A426B384E466B38471
S214008E3204A7B38484E6F445B386E626B3860667BB
S214008E42B38686A6B386A6E6A84933051527330554
S214008E52F566330595A63308D5E6F8493307F726AF
S214008E62330797663307D7A6330717E7A04D3304B1
S214008E7294263304D466330414A73304F4E6E84D88
S214008E823305D526330515673305F5A6330595E66E
S214008E92B451B3860627B386E666B38686A6B3883B
S214008EA2A6E6FC51B387E726B3878766B387A7A6ED
S214008EB2B38707E7A455B3848426B384A466B38431
S214008EC204A7B384E4E6F4553385A626330505677E
S214008ED23305E5A6B30685E6A859330515273305F7
S214008EE2F566330595A63308D5E6F8593307F7260F
S214008EF2330797663307D7A6330717E7A05D330411
S214008F0294263304D466330414A73304F4E6E85DE7
S214008F123305D526330515673305F5A6330595E6DD
S214008F2283A60508B3860627B386E666B38686A6B4
S214008F32B388A6E683A64508B386E626B386866683
S214008F42B386A6A6B38406E783A68508B3868626D6
S214008F52B386A666B38606A7B386E6E683A7C508E3
S214008F623385A726330505673305E5A6B30785E6E9
S214008F7203A5050933051527330595663305D5A6DA
S214008F823308F5E603A74509330797263307D7665E
S214008F923307F7A6330417E703A785093307D7264F
S214008FA23307F766330717A7330797E603A5C509FE
S214008FB23305F52633051567330595A63305D5E63D
S214008FC283A6050AB3860623B3868662B386E6A21E
S214008FD2B386A6E283A7450AB3878722B387E762EA
S214008FE2B387A7A2B38707E383A4850A93D886012B
S214008FF2B384E422B384A462B38404A3B38484E275
S21400900283A5C50A93D2060113D3860093D387019C
S2140090123385A52213DE07013305056393D5870042
S214009022330585A213D484013305E5E213D7040180
S2140090322300D600A300660023015600A3011601F2
S21400904293D684002302F600A302B6002303C601C9
S214009052A303760023049600A304D6002305E600A5
S214009062A30586009355850193560501135785007F
S2140090722306A600A306E6002307D600A307B6002B
S20C0090823244A2444101828041
S21400908A557186C7A2C5A6C3CAC14EDFAE84BD89BE
S21400909A95E13689AA896C003285EFF0AFA799C8A0
S2140090AA014433858900330689006C00F136410491
S2140090BAE36994FEBE402E449E440E49FA596961FD
S2060090CA82809D
S2080090CC0CC18280CC
S2140090D013060501944114C111059105E31CC5FE54
S2060090E0828087
S2140090E2557186C7A2C5A6C3CAC1370510001305A7
S2140090F205100C08EFF08FA23705100013050512B5
S2140091020C080A86B53E37051000130505113726EA
S21400911210009305060313060604144194C1910534
S2140091221105E39CC5FE0A85372610009305060442
S21400913213060605144194C191051105E39CC5FE6C
S2140091428348010083421100034E2100834E310002
S214009152034F4100834F51000348610003457100ED
S21400916283458100034391008343A1000349B10074
S21400917293C6480113C7920093475EFA13C6BEFF12
S2140091821344FF0193C44FFF1345150793C5E5FB30
S214009192D98E5D8E458CB368B5008345C100034702
S2140091A2D1008347E1008344F1001345E90293C5E9
S2140091B2F5004D8D558E9345B804C18D9346A3FA9E
S2140091C2B3E6D80013478700598DD18D13C65302D4
S2140091D2558E93C6970F558DD18D13C6A40A518D01
S2140091E24D8D1375F50F11C537B5AABA1305D5AA55
S2140091F229A037C5FECA1305E5ABB7251000C8C1BE
S21400920237C5ADDE1305F5EE88C10145BE402E44D6
S20C0092129E440E49696182804A
S214100000637C777BF26B6FC53001672BFED7AB76C0
S214100010CA82C97DFA5947F0ADD4A2AF9CA472C06B
S214100020B7FD9326363FF7CC34A5E5F171D83115D8
S21410003004C723C31896059A071280E2EB27B275F9
S21410004009832C1A1B6E5AA0523BD6B329E32F8471
S21410005053D100ED20FCB15B6ACBBE394A4C58CF69
S214100060D0EFAAFB434D338545F9027F503C9FA83D
S21410007051A3408F929D38F5BCB6DA2110FFF3D20B
S214100080CD0C13EC5F974417C4A77E3D645D1973BF
S21410009060814FDC222A908846EEB814DE5E0BDBB9
S2141000A0E0323A0A4906245CC2D3AC629195E479F0
S2141000B0E7C8376D8DD54EA96C56F4EA657AAE084A
S2141000C0BA78252E1CA6B4C6E8DD741F4BBD8B8AE5
S2141000D0703EB5664803F60E613557B986C11D9E4B
S2141000E0E1F8981169D98E949B1E87E9CE5528DFC2
S2141000F08CA1890DBFE6426841992D0FB054BB16EE
S214100100636573653430343070617373776F7264FF
S2141001101409A5FB1FF44B71BEAA252E0F08F9AAC9
S21410012048656C6C6F2C20576F726C6421303030C1
S8040080D2A9
