S01C00006F75747075742F736F66742D626173656C696E652E73726563FC
S214008000130000001300000013000000130000001F
S214008010130000001300000013000000130000000F
S21400802013000000130000001300000013000000FF
S21400803013000000130000001300000013000000EF
S21400804013000000130000001300000013000000DF
S2140080501300000013000000130000006F0040092A
S2140080606F00200A6F00000B6F00E00B6F00C00C63
S2140080706F00C00E6F00600D6F0080106F00200F45
S2100080806F00C0006F00E0106F00C01121
S21400808C81400681868106828682068386830684E4
S21400809C868406858685068686860687868706886F
S2140080AC868806898689068A868A068B868B068C3F
S2140080BC868C068D868D068E868E068F868F17018D
S2140080CC1000130161F36357BD0123200D00110D41
S2140080DCE3DDADFF01458145EF0010282A8422859B
S2140080ECEF00803D1D7186CEC9209700000093805E
S2140080FC80106F0040181D7186CE45289700000032
S21400810C9380600F6F00E0171D7186CE792897005C
S21400811C00009380400E6F0080171D7186CE712074
S21400812C970000009380200D6F0020171D7186CEDF
S21400813CAD28970000009380000C6F00C0161D71D0
S21400814C86CEA520970000009380E00A6F002017CB
S21400815C1D7186CE9928970000009380C0096F0089
S21400816C40151D7186CE9120970000009380A008C4
S21400817C6F0060161D7186CE0D2897000000938048
S21400818C80076F0080141D7186CE052097000000B6
S21400819C938060066F00A00C1D7186CE3920970068
S2140081AC0000938040056F00400C0EC012C216C42F
S2140081BC1AC61EC82ACA2ECC32CE36D03AD23ED4D6
S2140081CC42D646D872DA76DC7ADEFEC0732E007B98
S2140081DCF32E107B732F207BF2C2F6C4FAC6732ED6
S2140081EC407BF32E507B732F607BF2C8F6CAFACC1A
S2140081FC8280464ED64E664F73104E7B73905E7BD7
S21400820C73106F7B164EA64E364F73100E7B739004
S21400821C1E7B73102F7B82411242A2423243C24312
S21400822C5245E245724682561257A2573258C258E9
S21400823C525EE25E725F864FF64025617300203018
S21400824C828000000000000000000000000000001B
S20600825C00001B
S21000825E411106C622C4000809A001A0B9
S21000826A411106C622C4000809A001A0AD
S210008276411106C622C4000809A001A0A1
S210008282411106C622C4000809A001A095
S21000828E411106C622C4000809A001A089
S21000829A411106C622C4000809A001A07D
S2100082A6411106C622C4000809A001A071
S2100082B2411106C622C4000809A001A065
S2100082BE411106C622C4000809A001A059
S2100082CA411106C622C4000809A001A04D
S2100082D6411106C622C4000809A001A041
S2100082E2411106C622C4000809A001A035
S2140082EE011106CE22CC00102328A4FE2326B4FEAF
S2140082FE2324C4FE2322D4FE832544FE0325C4FE77
S21400830E636FB50009A0032504FF832584FE0326AC
S21400831E44FE8122032544FE232AA4FE29A00145FD
S21400832E232AA4FE09A0032544FFF24062440561F9
S20600833E828036
S214008340011106CE22CC0010232AA4FEA309B4FEF7
S2140083502326C4FE032544FF0326C4FE834534FFBC
S20E0083604528F24062440561828061
S21400836A411106C622C40008A30BA4FE834574FF67
S21400837A139515009D816D46B385C5022D8D13751F
S20E00838AF50FB24022444101828044
S214008394797106D622D40018232AA4FE2328B4FE14
S2140083A42326C4FE032544FF2324A4FE032504FF3A
S2140083B42322A4FE0145A301A4FE232EA4FC09A0A7
S2140083C40325C4FD8325C4FE637CB50209A00325EA
S2140083D484FE0326C4FD329503450500832544FE2A
S2140083E4B29583C50500A98D034534FE4D8DA301C2
S2140083F4A4FE09A00325C4FD0505232EA4FCC9B7C5
S210008404034534FEB250225445618280CD
S214008410011106CE22CC0010232AA4FE2328B4FE87
S2140084202326C4FE032544FF2324A4FE09A0032517
S214008430C4FE9305F5FF2326B4FE09CD09A0032547
S21400844004FF832584FE138615002324C4FE2380A0
S214008450A500F1BF032544FFF24062440561828017
S214008460011106CE22CC0010232AA4FE2328B4FE37
S2140084702326C4FE032544FF2324A4FE032504FF6D
S2140084802322A4FE09A00325C4FE9305F5FF232698
S214008490B4FE1DC109A0032544FE93051500232242
S2140084A0B4FE03450500832584FE138615002324A9
S2140084B0C4FE2380A500C1BF032544FFF2406244EA
S2080084C0056182804B
S2140084C4411106C622C40008232AA4FE032544FF3D
S20A0084D4192009A001A01A
S2140084DA411106C622C40008232AA4FE09A001A048
S2140084EA411106C622C40008232AA4FE01452328F1
S2140084FAA4FE09A0032504FF832544FF635BB50099
S21400850A09A0010009A0032504FF05052328A4FEE7
S20E00851AD5B7B2402244410182802A
S214008524011106CE22CC0010232AA4FE2328B4FE72
S21400853401452326A4FE09A08325C4FE3D456346C3
S214008544B50209A0032544FF0326C4FE329503455D
S2140085540500832504FFB2952380A50009A0032502
S214008564C4FE05052326A4FEC1BF41452326A4FE5A
S21400857409A08325C4FE1305F00A6340B51409A0B8
S214008584832504FF0325C4FE2E950345C5FF230457
S214008594A4FE832504FF0325C4FE2E950345D5FFBC
S2140085A4A304A4FE832504FF0325C4FE2E950345D9
S2140085B4E5FF2305A4FE832504FF0325C4FE2E95AC
S2140085C40345F5FFA305A4FE0325C4FE9355F54114
S2140085D4F181AA95C1990D8D35E909A0034584FE5C
S2140085E4A303A4FE834594FE370510001305050077
S2140085F4AA9583C505002304B4FE8345A4FEAA9564
S21400860483C50500A304B4FE8345B4FEAA9583C5BA
S21400861405002305B4FE834574FE2E950345050028
S214008624A305A4FE0325C4FE9355F541F1812E95BA
S2140086341185B7051000938505102E958345F5FF23
S214008644034584FE2D8D2304A4FE09A0032504FF00
S2140086548325C4FEAA9503C505FF034684FE318D13
S2140086642380A500832504FF0325C4FEAA9503C51D
S21400867415FF034694FE318DA380A500832504FFD1
S2140086840325C4FEAA9503C525FF0346A4FE318D23
S2140086942381A500832504FF0325C4FEAA9503C5EC
S2140086A435FF0346B4FE318DA381A50009A003253A
S2140086B4C4FE11052326A4FE6DBDF2406244056186
S2060086C48280AD
S2140086C61D7186CEA2CC8010232AA4FE2328B4FED3
S2140086D62326C4FE032544FF2322A4FA0346C50028
S2140086E68345D500A2054D8E8345E5009396050184
S2140086F68345F500E205D58DD18D2324B4FE0346C9
S214008706850083459500A2054D8E8345A500939664
S21400871605018345B500E205D58DD18D2322B4FE2D
S2140087260346450083455500A2054D8E83456500E4
S2140087369396050183457500E205D58DD18D2320D8
S214008746B4FE0346050083451500A205D18D0346F3
S21400875625004206034535006205518D4D8D232EB4
S214008766A4FC032504FF2324A4FC01452322A4FC21
S21400877609A0832544FC0D456347B50209A00325D9
S21400878684FC832544FC8A052E9510411305C4FDFA
S214008796AA958841318D88C109A0032544FC0505A4
S2140087A62322A4FCF9B705452320A4FC09A08325AB
S2140087B604FC25456349B50C09A00145232EA4FAF9
S2140087C609A08325C4FB0D456348B50809A0032503
S2140087D684FC832504FC8A050326C4FBB2958A0519
S2140087E62E950841232CA4FA0145232AA4FA09A0AB
S2140087F6832544FB0D456340B50409A0032584FB89
S2140088068325C4FB032644FBB29593D6F541F9822D
S214008816AE96F19A958D939625009305C4FDB6956A
S2140088268C41012A232CA4FA09A0032544FB05053E
S214008836232AA4FA75BF032584FB8325C4FB139657
S21400884625009305C4FCB29588C109A00325C4FB80
S2140088560505232EA4FAB5B7032584FD2324A4FE16
S214008866032544FD2322A4FE032504FD2320A4FE9F
S2140088760325C4FC232EA4FC09A0032504FC050539
S2140088862320A4FC2DB701452328A4FA09A0832596
S21400889604FB0D456345B50809A0832584FC03251E
S2140088A604FB0A052E950325050A2326A4FA014588
S2140088B62324A4FA09A0832584FA0D456340B5044B
S2140088C609A00325C4FA832504FB032684FAB29579
S2140088D693D6F541F982AE96F19A958D9396250034
S2140088E69305C4FDB6958C41ED202326A4FA09A06F
S2140088F6032584FA05052324A4FA75BF0325C4FABE
S214008906832504FB139625009305C4FCB29588C1FF
S21400891609A0032504FB05052328A4FA8DBF032515
S214008926C4FE9305C4FC41460D3EF64066442561EA
S206008936828038
S214008938011106CE22CC0010232AA4FE2328B4FE5A
S2140089482326C4FE0325C4FE2322A4FE05C509A0CB
S214008958032544FE85456308B50209A0032544FEA1
S2140089688945630BB50209A0032544FE8D45630EB1
S214008978B502A9A0032544FF832504FF3305B526C1
S2140089882324A4FE81A0032544FF832504FF330582
S214008998B5662324A4FE3DA0032544FF832504FFD3
S2140089A83305B5A62324A4FE31A8032544FF832552
S2140089B804FF3305B5E62324A4FE29A00145232495
S2140089C8A4FE09A0032584FEF24062440561828065
S2140089D8011106CE22CC0010232AA4FE2328B4FEBA
S2140089E82326C4FE0325C4FE2322A4FE05C509A02B
S2140089F8032544FE85456308B50209A0032544FE01
S214008A088945630BB50209A0032544FE8D45630E10
S214008A18B502A9A0032544FF832504FF3305B52224
S214008A282324A4FE81A0032544FF832504FF3305E1
S214008A38B5622324A4FE3DA0032544FF832504FF36
S214008A483305B5A22324A4FE31A8032544FF8325B5
S214008A5804FF3305B5E22324A4FE29A001452324F8
S214008A68A4FE09A0032584FEF240624405618280C4
S214008A78557186C7A2C58009232AA4FE2328B4FEFA
S214008A882326C4FE2324D4FE034504FF3D8919C1CA
S214008A9809A099A00325C4FE930584F34134014533
S214008AA8232AA4F209A0032544F3832504FF63754B
S214008AB8B50209A0032544FF032644F3329583250F
S214008AC884FE2E96930584F3DD3E09A0032544F321
S214008AD84105232AA4F2C1BFBE402E4469618280A4
S214008AE8411106C622C40008232AA4FE2328B4FE81
S214008AF8032504FF832544FF88C1B2402244410170
S206008B08828064
S214008B0A011106CE22CC0010232AA4FE2328B4FE86
S214008B1A032504FF2326A4FE01452324A4FE09A058
S214008B2A832584FE0D456346B50209A0032544FF46
S214008B3A832584FE1396250032958325C4FEB295B6
S214008B4A8C41713F09A0032584FE05052324A4FE53
S20E008B5AC1BFF2406244056182804C
S214008B64597186D6A2D4801801452320A4FA232A54
S214008B74A4FE37353030130515022328A4FE3775B6
S214008B846C641305F5262326A4FE373520571305F3
S214008B94F5C62324A4FE37656C6C1305855423227E
S214008BA4A4FE37757264130575F72320A4FE376593
S214008BB4737313050517232EA4FC373534301305B9
S214008BC44503232CA4FC3765736513053556232A01
S214008BD4A4FC3715F9AA1305F5802328A4FC37B599
S214008BE4252E1305E5AB2326A4FC37F54B71130598
S214008BF4F5412324A4FC3715A5FB13054591232230
S214008C04A4FC41452328A4FA832504FB130544FE4B
S214008C14130644FD930644FB232CD4F8A13D3725C4
S214008C241000232EA4F8130505032326A4FA03250F
S214008C34C4FA930544FCC13D832584F90325C4F98D
S214008C44130505042326A4FA0325C4FA6D3D8325DB
S214008C54C4F9032504FA91052326B4FAB7C5FECA57
S214008C649385E5AB2324B4FA2322A4FA09A083252A
S214008C7444FA3D456340B50409A0032644FA1305A7
S214008C8444FB329503450500930544FCB29583C521
S214008C940500630AB50009A037B5AABA1305D5AA14
S214008CA42324A4FA01A809A0032544FA05052322CF
S214008CB4A4FA75BF0325C4FA832584FA2535372517
S214008CC410002326A4FA37C5ADDE1305F5EE2324DB
S214008CD4A4FA0325C4FA832584FA29350145B65037
S20A008CE426546561828043
S214100000637C777BF26B6FC53001672BFED7AB76C0
S214100010CA82C97DFA5947F0ADD4A2AF9CA472C06B
S214100020B7FD9326363FF7CC34A5E5F171D83115D8
S21410003004C723C31896059A071280E2EB27B275F9
S21410004009832C1A1B6E5AA0523BD6B329E32F8471
S21410005053D100ED20FCB15B6ACBBE394A4C58CF69
S214100060D0EFAAFB434D338545F9027F503C9FA83D
S21410007051A3408F929D38F5BCB6DA2110FFF3D20B
S214100080CD0C13EC5F974417C4A77E3D645D1973BF
S21410009060814FDC222A908846EEB814DE5E0BDBB9
S2141000A0E0323A0A4906245CC2D3AC629195E479F0
S2141000B0E7C8376D8DD54EA96C56F4EA657AAE084A
S2141000C0BA78252E1CA6B4C6E8DD741F4BBD8B8AE5
S2141000D0703EB5664803F60E613557B986C11D9E4B
S2141000E0E1F8981169D98E949B1E87E9CE5528DFC2
S2141000F08CA1890DBFE6426841992D0FB054BB16EE
S21410010001020408102040801B3663657365343086
S214100110343070617373776F72641409A5FB1FF423
S2141001204B71BEAA252E0F08F9AA48656C6C6F2C69
S20E10013020576F726C6421303030D7
S20610013A0000AE
S8040080D2A9
